:100000000C945D000C9485000C9485000C94850084
:100010000C9485000C9485000C9485000C9485004C
:100020000C9485000C9485000C9485000C946A0354
:100030000C9485000C9485000C9485000C9485002C
:100040000C9420030C9485000C94EE020C94C802CE
:100050000C9485000C9485000C9485000C9485000C
:100060000C9485000C94850000000008000201003B
:100070000003040700000000000000000000000072
:10008000250028002B0000000000240027002A0083
:10009000040404040404040402020202020203032E
:1000A0000303030301020408102040800102040836
:1000B0001020010204081020530511241FBECFEFA9
:1000C000D8E0DEBFCDBF11E0A0E0B1E0EEEEFBE096
:1000D00002C005900D92A231B107D9F721E0A2E14B
:1000E000B1E001C01D92AE3DB207E1F710E0CDE5F1
:1000F000D0E004C02197FE010E94EF05CC35D10766
:10010000C9F70E9426040C94F5050C94000090E0B9
:10011000FC01EC55FF4F249180579F4FFC018491C7
:10012000882399F090E0880F991FFC01EA57FF4F50
:10013000A591B491FC01E458FF4F859194918FB73C
:10014000F894EC91E22BEC938FBF0895AF92BF929D
:10015000CF92DF92EF92FF920F931F93CF93DF9393
:100160006C017B018B01040F151FEB015E01AE18C2
:10017000BF08C017D10759F06991D601ED91FC91E4
:100180000190F081E02DC6010995892B79F7C50111
:10019000DF91CF911F910F91FF90EF90DF90CF9063
:1001A000BF90AF900895FC01538D448D252F30E012
:1001B000842F90E0821B930B541710F0CF96089574
:1001C00001970895FC01918D828D981761F0A28DA1
:1001D000AE0FBF2FB11D5D968C91928D9F5F9F7367
:1001E000928F90E008958FEF9FEF0895FC01918D1D
:1001F000828D981731F0828DE80FF11D858D90E08A
:1002000008958FEF9FEF0895FC01918D228D892F26
:1002100090E0805C9F4F821B91098F73992708950E
:100220008CE191E00E94040121E0892B09F420E097
:10023000822F089580E090E0892B29F00E94100120
:1002400081110C9400000895FC01A48DA80FB92F12
:10025000B11DA35ABF4F2C91848D90E001968F73EE
:100260009927848FA689B7892C93A089B1898C910D
:10027000837080648C93938D848D981306C002885C
:10028000F389E02D80818F7D80830895EF92FF9226
:100290000F931F93CF93DF93EC0181E0888F9B8DA9
:1002A0008C8D98131AC0E889F989808185FF15C063
:1002B0009FB7F894EE89FF896083E889F989808186
:1002C0008370806480839FBF81E090E0DF91CF9155
:1002D0001F910F91FF90EF900895F62E0B8D10E077
:1002E0000F5F1F4F0F731127E02E8C8D8E110CC0E6
:1002F0000FB607FCFACFE889F989808185FFF5CF31
:10030000CE010E942401F1CFEB8DEC0FFD2FF11DEA
:10031000E35AFF4FF0829FB7F8940B8FEA89FB896D
:1003200080818062CFCFCF93DF93EC01888D8823CB
:10033000B9F0AA89BB89E889F9898C9185FD03C048
:10034000808186FD0DC00FB607FCF7CF8C9185FF2D
:10035000F2CF808185FFEDCFCE010E942401E9CF4D
:10036000DF91CF91089590E0FC01E859FF4F24916F
:10037000FC01EC55FF4F3491FC01E057FF4FE49135
:10038000EE23C9F0222339F0233001F1A8F4213003
:1003900019F1223029F1F0E0EE0FFF1FE458FF4F72
:1003A000A591B4918FB7F894EC91611126C0309566
:1003B0003E233C938FBF08952730A9F02830C9F021
:1003C000243049F7809180008F7D03C080918000A8
:1003D0008F7780938000DFCF84B58F7784BDDBCFAC
:1003E00084B58F7DFBCF8091B0008F778093B00074
:1003F000D2CF8091B0008F7DF9CF3E2BDACF3FB7BF
:10040000F8948091180190911901A0911A01B0916E
:100410001B0126B5A89B05C02F3F19F00196A11D11
:10042000B11D3FBFBA2FA92F982F8827BC01CD013E
:10043000620F711D811D911D42E0660F771F881F9D
:10044000991F4A95D1F708958F929F92AF92BF92CC
:10045000CF92DF92EF92FF920E94FF014B015C016D
:100460008FE0C82ED12CE12CF12C0E94FF016819DD
:1004700079098A099B09683E734081059105A8F3B3
:1004800021E0C21AD108E108F10888EE880E83E065
:10049000981EA11CB11CC114D104E104F10429F778
:1004A000FF90EF90DF90CF90BF90AF909F908F9094
:1004B00008958F929F92AF92BF92FF920F931F93D6
:1004C000CF93DF93FC016F3F760709F45EC0653B75
:1004D000710511F464EB70E0F0808BE08F1508F487
:1004E0004AC0828108E512E0081B110987FD1395B7
:1004F000000F111F000F111F8181C8E8D0E0C81B39
:10050000D10987FDD395CC0FDD1FCC0FDD1F4E0128
:100510000D2E000CAA08BB089801012E000C440BFC
:10052000550B281939094A095B09DB010E94AA0504
:1005300024EB30E040E050E00E948005820E931EE4
:10054000A41EB51E8C169D062CF0E801801691069F
:100550000CF4E4012297CC0FDD1F2FB7F8948F2DF8
:1005600090E0FC01EE0FFF1FE80FF91FE654FE4F6D
:10057000D283C1832FBFDF91CF911F910F91FF9045
:10058000BF90AF909F908F90089570E060E0A4CFEF
:100590001F920F920FB60F9211242F933F934F93F8
:1005A0005F936F937F938F939F93AF93BF93EF93DB
:1005B000FF938CE191E00E942401FF91EF91BF91A4
:1005C000AF919F918F917F916F915F914F913F91EB
:1005D0002F910F900FBE0F901F9018951F920F92A2
:1005E0000FB60F9211242F938F939F93EF93FF9346
:1005F000E0912C01F0912D018081E0913201F09188
:10060000330182FD1BC09081809135018F5F8F7314
:1006100020913601821741F0E0913501F0E0E45E6F
:10062000FE4F958F80933501FF91EF919F918F91B0
:100630002F910F900FBE0F901F9018958081F4CFCF
:100640001F920F920FB60F9211242F933F938F9307
:100650009F93AF93BF938091140190911501A09146
:100660001601B09117013091130123E0230F2D37AC
:1006700058F50196A11DB11D20931301809314011B
:1006800090931501A0931601B09317018091180162
:1006900090911901A0911A01B0911B010196A11D21
:1006A000B11D8093180190931901A0931A01B09382
:1006B0001B01BF91AF919F918F913F912F910F900F
:1006C0000FBE0F901F90189526E8230F0296A11DCC
:1006D000B11DD2CF1F920F920FB60F9211242F93FC
:1006E0003F934F935F936F937F938F939F93AF93BA
:1006F000BF93CF93DF93EF93FF9380911201C0914B
:10070000B901D0E087FF24C01092850010928400C8
:10071000809112018F5F8093120180911201082E47
:10072000000C990B8C179D0724F4809112018C30DA
:10073000C4F18091840090918500049680349C4996
:1007400008F47AC08091840090918500049676C068
:1007500080911201082E000C990B8C179D07C4F68E
:10076000E09112018E2FEE0F990BFC01EE0FFF1F8F
:10077000E80FF91FE654FE4F808186FFC9CFE09154
:1007800012018E2FEE0F990BFC01EE0FFF1FE80FE9
:10079000F91FE654FE4F808160E08F730E94B30121
:1007A000B7CF2091840030918500E09112018E2F07
:1007B000EE0F990BFC01EE0FFF1FE80FF91FE65437
:1007C000FE4F81819281820F931F909389008093C5
:1007D0008800E09112018E2FEE0F990BFC01EE0FB5
:1007E000FF1FE80FF91FE654FE4F808186FF11C0FE
:1007F000E09112018E2FEE0F990BFC01EE0FFF1FFF
:10080000E80FF91FE654FE4F808161E08F730E946C
:10081000B301FF91EF91DF91CF91BF91AF919F9184
:100820008F917F916F915F914F913F912F910F9099
:100830000FBE0F901F90189580E49CE9909389005B
:10084000809388008FEF80931201E3CFCF93DF93E3
:1008500000D01F92CDB7DEB7789484B5826084BD96
:1008600084B5816084BD85B5826085BD85B58160B4
:1008700085BD80916E00816080936E001092810032
:1008800080918100826080938100809181008160ED
:1008900080938100809180008160809380008091AE
:1008A000B10084608093B1008091B000816080933A
:1008B000B00080917A00846080937A0080917A0001
:1008C000826080937A0080917A00816080937A00C0
:1008D00080917A00806880937A001092C10085E050
:1008E0000E94870084E00E94870087E00E948700C2
:1008F00088E00E9487008AE00E94870086E00E94CC
:10090000870083E00E948700E0912C01F0912D0187
:1009100082E08083E0912801F09129011082E0912A
:100920002A01F0912B018FEC808310923401E09129
:100930003001F091310186E08083E0912E01F09149
:100940002F01808180618083E0912E01F0912F0141
:10095000808188608083E0912E01F0912F01808159
:1009600080688083E0912E01F0912F0180818F7D3E
:10097000808338EBE32E3BE0F32E4CE0D42E52E0A4
:10098000C52E00E010E0BB24BA948091B9018C30F0
:1009900008F087C091E0980F9093B901898390E0A7
:1009A000FC01EE0FFF1FE80FF91FE654FE4FF28225
:1009B000E18289818C3008F04AC083E00E94870080
:1009C0008981282F30E0F901EE0FFF1FE20FF31F9E
:1009D000E654FE4F9081907C936090831A821B8234
:1009E0006D2D0E94E3058D9DA001112430E020E0D3
:1009F000BA01620F731FFB01EE0FFF1FE60FF71F17
:100A0000E654FE4F908196FD15C02F5F3F4F2C306E
:100A1000310571F781110EC010928000C0928100E3
:100A20001092850010928400B19A80916F008260CC
:100A300080936F00E9818E2F90E0FC01EE0FFF1F85
:100A4000E80FF91FE654FE4F808180648083912C6B
:100A5000812CB401CE0101960E9459020E94240209
:100A60008FEF881A980A85EB8816910491F784EB2A
:100A7000882E912CB401CE0101960E9459020E9449
:100A8000240281E0881A9108A8F70115110509F4DC
:100A90007CCF0E941001882309F477CF0E940000C8
:100AA00074CFB98286CFECE1F1E01382128288EE36
:100AB00093E0A0E0B0E084839583A683B78384E0CD
:100AC00091E09183808385EC90E09587848784EC26
:100AD00090E09787868780EC90E0918B808B81EC0B
:100AE00090E0938B828B82EC90E0958B848B86ECEC
:100AF00090E0978B868B118E128E138E148E089534
:100B0000052E97FB1EF400940E94970557FD07D011
:100B10000E94B20507FC03D04EF40C949705509543
:100B20004095309521953F4F4F4F5F4F08959095D9
:100B30008095709561957F4F8F4F9F4F08950E94CC
:100B4000D405A59F900DB49F900DA49F800D911D7D
:100B500011240895B7FF0C949F050E949F05821BE6
:100B6000930B0895A1E21A2EAA1BBB1BFD010DC019
:100B7000AA1FBB1FEE1FFF1FA217B307E407F5074D
:100B800020F0A21BB30BE40BF50B661F771F881F29
:100B9000991F1A9469F760957095809590959B01BF
:100BA000AC01BD01CF010895A29FB001B39FC00168
:100BB000A39F700D811D1124911DB29F700D811D89
:100BC0001124911D0895991B79E004C0991F96176F
:100BD00008F0961B881F7A95C9F780950895EE0F47
:0E0BE000FF1F0590F491E02D0994F894FFCFCB
:100BEE00000000004601A600D30093010401E200BC
:020BFE00F600FF
:00000001FF
